:04000000F2EF0AF021
:101000000000010E2D6E2750D8B409EF08F00BEF49
:1010100008F01BEF08F02750D96EDA6ADF30E832AB
:10102000E832070B286E070E286419EF08F01BEF53
:1010300008F072EF08F0000E2D6E92EF08F02750C6
:10104000D96EDA6ADF30E832E832070B286E010E1B
:10105000296E282A2EEF08F0D8902936282E2CEF5A
:1010600008F02950FF0A2A6E2750D96EDA6ADF503D
:10107000070B020DF350150FD96EDA6ADECF2BF095
:10108000DDCF2CF02BC0D9FF2CC0DAFF2A50DF16A1
:1010900092EF08F02750D96EDA6ADF30E832E83292
:1010A000070B286E010E296E282A59EF08F0D890F8
:1010B0002936282E57EF08F02750D96EDA6ADF500C
:1010C000070B020DF350150FD96EDA6ADECF2AF046
:1010D000DDCF2BF02AC0D9FF2BC0DAFF2950DF1259
:1010E00092EF08F02750D96EDA6ADFBC7AEF08F089
:1010F0007DEF08F0010E7EEF08F0000E286E296AE1
:101100002950000AD8B487EF08F01BEF08F02850E8
:10111000000AD8B41FEF08F0010AD8B44AEF08F06B
:101120001BEF08F02D501200010E2E6E2750D8B480
:101130009CEF08F09EEF08F0AEEF08F02750D96E54
:10114000DA6ADF30E832E832070B296E070E2964CD
:10115000ACEF08F0AEEF08F005EF09F0000E2E6ED0
:101160001AEF09F02750D96EDA6ADF30E832E83238
:10117000070B296E010E2A6E292AC1EF08F0D890BC
:101180002A36292EBFEF08F02A50FF0A2B6E27506F
:10119000D96EDA6ADF50070B020DF3500B0FD96ED0
:1011A000DA6ADECF2CF0DDCF2DF02CC0D9FF2DC0B8
:1011B000DAFF2B50DF161AEF09F02750D96EDA6AE2
:1011C000DF30E832E832070B296E010E2A6E292A39
:1011D000ECEF08F0D8902A36292EEAEF08F02750D5
:1011E000D96EDA6ADF50070B020DF3500B0FD96E80
:1011F000DA6ADECF2BF0DDCF2CF02BC0D9FF2CC06C
:10120000DAFF2A50DF121AEF09F02850296E2A6AF5
:101210002A50000AD8B40FEF09F0AEEF08F02950B9
:10122000000AD8B4B2EF08F0010AD8B4DDEF08F034
:10123000AEEF08F02E501200000E336E2E50D8B4D0
:1012400024EF09F026EF09F02EEF09F02F50D8A473
:101250002CEF09F02EEF09F032EF09F0000E326E9C
:1012600074EF09F02EC027F0330E286E76EC09F0EB
:10127000326E5AEF09F03304D8A441EF09F043EF7E
:1012800009F04AEF09F02F50D96EDA6A010EDF6ECD
:1012900074EF09F02F50D96EDA6ADF6A74EF09F043
:1012A0003304D8A456EF09F058EF09F043EF09F0E2
:1012B0004AEF09F02E50D96EDA6A020ED926DF50B5
:1012C000306E316A3150000AD8B469EF09F074EF1A
:1012D00009F03050000AD8B450EF09F0010AD8B430
:1012E0003BEF09F074EF09F032501200010E2D6E41
:1012F0002750D8B47EEF09F080EF09F098EF09F09D
:101300002850D8B486EF09F088EF09F098EF09F07B
:101310002750D96EDA6ADF30E832E832070B296EDF
:10132000070E296496EF09F098EF09F09CEF09F099
:10133000000E2D6EC6EF09F02850D96EDA6A2750DC
:10134000E16EE26AE730E832E832070B296E275097
:10135000E16EE26AE750070B020DF350010FE16EF8
:10136000E26AE6CF2AF0E5CF2BF02AC0E1FF2BC0DE
:10137000E2FFE7502C6E292AC0EF09F0D8902C32FA
:10138000292EBEEF09F02C50010BDF6E2D501200FC
:101390000DEC0BF0220E2E6E3B0E2F6E1CEC09F0A6
:1013A0003C6E1F0E2E6E3A0E2F6E1CEC09F03C6E3A
:1013B0003B04D8A4DEEF09F0E0EF09F0E7EF09F015
:1013C000260E2F6E14EC0AF03C6EF4EF09F03B5041
:1013D000D8A4EDEF09F0EFEF09F0F4EF09F0260ED5
:1013E0002F6E50EC0AF03C6E3A50D8A4FAEF09F098
:1013F000FCEF09F003EF0AF0250E2F6E50EC0AF017
:101400003C6ECAEF09F03A04D8A409EF0AF00BEFDA
:101410000AF0CAEF09F0250E2F6E14EC0AF03C6EAC
:10142000CAEF09F000EF00F0010E316E2F50D8A482
:101430001CEF0AF01EEF0AF022EF0AF0000E316EE8
:101440004EEF0AF038C032F02F50D96EDA6ADF5012
:10145000070B306E32503018F80B3018326E2F50A8
:10146000D96EDA6ADF30E832E832070B306E304688
:101470003046304632503018C70B3018326E329C2E
:101480002F50D96EDA6ADFAC02D0328E01D0329E94
:10149000320E276E010E286E94EC08F031501200C7
:1014A000010E316E2F50D8A458EF0AF05AEF0AF00F
:1014B0005EEF0AF0000E316E8AEF0AF037C032F0AC
:1014C0002F50D96EDA6ADF50070B306E3250301869
:1014D000F80B3018326E2F50D96EDA6ADF30E832EE
:1014E000E832070B306E3046304630463250301806
:1014F000C70B3018326E329C2F50D96EDA6ADFACCF
:1015000002D0328E01D0329E320E276E000E286E2F
:1015100094EC08F031501200010E346E3250D8A411
:1015200094EF0AF096EF0AF09AEF0AF0000E346E8C
:10153000C4EF0AF039C035F03250D96EDA6ADF50A4
:10154000070B336E35503318F80B3318356E3250A5
:10155000D96EDA6ADF30E832E832070B336E334691
:101560003346334635503318C70B3318356E359C28
:101570003250D96EDA6ADFAC02D0358E01D0359E9A
:10158000350E2F6EC6EC0AF0345012002F50D8B42E
:10159000CCEF0AF0CEEF0AF0DEEF0AF02F50D96E52
:1015A000DA6ADF30E832E832070B306E070E30645B
:1015B000DCEF0AF0DEEF0AF0E0EF0AF0F1EF0AF0FC
:1015C0002FC027F001EC08F0316E2FC027F02F500C
:1015D000D96EDA6A000EDFBE010E286E94EC08F0B8
:1015E000316E1200440EF66E160EF76E000EF86E97
:1015F00000EE01F010EE26F00900F5CFEEFFE55009
:10160000E150FAE13B6A3A6A396A386A376A366AFF
:10161000000EF86E0001C8EF09F0260E326E8CEC59
:101620000AF03C6E250E326E8CEC0AF03C6E220EF7
:101630002E6E35EC0BF03C6E1F0E2E6E35EC0BF063
:101640003C6E1200800F810F820F830F840F890F71
:101650008A0F8B0F8C0F8D0F920F930F940F950F96
:10166000960FCB00004300010A022E50D8A43BEF96
:101670000BF03DEF0BF041EF0BF0000E2F6E46EF3D
:101680000BF02EC027F001EC08F02F6E2F50120047
:020000040020DA
:08000000FFFFFFFFFFFFFFFF00
:020000040030CA
:0E000000FF02091EFF8181FF0FC00FE00F40BD
:00000001FF
